{
  "address": "0x050A8691b3D7d31917bF1Bd7934a114B31282122",
  "abi": [
    {
      "inputs": [],
      "stateMutability": "nonpayable",
      "type": "constructor"
    },
    {
      "inputs": [],
      "name": "InvalidRelayerAddress",
      "type": "error"
    },
    {
      "inputs": [],
      "name": "InvalidSmartAccount",
      "type": "error"
    },
    {
      "inputs": [],
      "name": "NotAnAuthorizedRelayer",
      "type": "error"
    },
    {
      "inputs": [],
      "name": "OnlyAuthorizedRelayer",
      "type": "error"
    },
    {
      "inputs": [],
      "name": "OnlyOwner",
      "type": "error"
    },
    {
      "inputs": [],
      "name": "OnlyRegisteredPlayer",
      "type": "error"
    },
    {
      "inputs": [],
      "name": "PlayerAlreadyRegistered",
      "type": "error"
    },
    {
      "inputs": [],
      "name": "PlayerDoesNotExist",
      "type": "error"
    },
    {
      "inputs": [],
      "name": "ReplayAlreadyExists",
      "type": "error"
    },
    {
      "inputs": [],
      "name": "UsernameEmpty",
      "type": "error"
    },
    {
      "inputs": [],
      "name": "UsernameTooLong",
      "type": "error"
    },
    {
      "anonymous": false,
      "inputs": [
        {
          "indexed": true,
          "internalType": "address",
          "name": "playerAddress",
          "type": "address"
        },
        {
          "indexed": false,
          "internalType": "string",
          "name": "username",
          "type": "string"
        }
      ],
      "name": "PlayerRegistered",
      "type": "event"
    },
    {
      "anonymous": false,
      "inputs": [
        {
          "indexed": true,
          "internalType": "address",
          "name": "relayer",
          "type": "address"
        }
      ],
      "name": "RelayerAdded",
      "type": "event"
    },
    {
      "anonymous": false,
      "inputs": [
        {
          "indexed": true,
          "internalType": "address",
          "name": "relayer",
          "type": "address"
        }
      ],
      "name": "RelayerRemoved",
      "type": "event"
    },
    {
      "anonymous": false,
      "inputs": [
        {
          "indexed": true,
          "internalType": "address",
          "name": "playerAddress",
          "type": "address"
        },
        {
          "indexed": true,
          "internalType": "bytes32",
          "name": "replayHash",
          "type": "bytes32"
        }
      ],
      "name": "ReplayDataStored",
      "type": "event"
    },
    {
      "anonymous": false,
      "inputs": [
        {
          "indexed": true,
          "internalType": "address",
          "name": "playerAddress",
          "type": "address"
        },
        {
          "indexed": false,
          "internalType": "uint256",
          "name": "score",
          "type": "uint256"
        },
        {
          "indexed": false,
          "internalType": "uint256",
          "name": "timestamp",
          "type": "uint256"
        },
        {
          "indexed": false,
          "internalType": "bytes32",
          "name": "replayHash",
          "type": "bytes32"
        }
      ],
      "name": "ScoreSubmitted",
      "type": "event"
    },
    {
      "anonymous": false,
      "inputs": [
        {
          "indexed": true,
          "internalType": "address",
          "name": "eoa",
          "type": "address"
        },
        {
          "indexed": false,
          "internalType": "address",
          "name": "smartAccount",
          "type": "address"
        }
      ],
      "name": "SmartAccountRegistered",
      "type": "event"
    },
    {
      "anonymous": false,
      "inputs": [
        {
          "indexed": true,
          "internalType": "address",
          "name": "playerAddress",
          "type": "address"
        },
        {
          "indexed": false,
          "internalType": "string",
          "name": "newUsername",
          "type": "string"
        }
      ],
      "name": "UsernameChanged",
      "type": "event"
    },
    {
      "inputs": [
        {
          "internalType": "address",
          "name": "relayer",
          "type": "address"
        }
      ],
      "name": "addRelayer",
      "outputs": [],
      "stateMutability": "nonpayable",
      "type": "function"
    },
    {
      "inputs": [
        {
          "internalType": "address",
          "name": "",
          "type": "address"
        }
      ],
      "name": "authorizedRelayers",
      "outputs": [
        {
          "internalType": "bool",
          "name": "",
          "type": "bool"
        }
      ],
      "stateMutability": "view",
      "type": "function"
    },
    {
      "inputs": [
        {
          "internalType": "address",
          "name": "playerAddress",
          "type": "address"
        }
      ],
      "name": "getPlayer",
      "outputs": [
        {
          "components": [
            {
              "internalType": "string",
              "name": "username",
              "type": "string"
            },
            {
              "internalType": "uint256",
              "name": "highScore",
              "type": "uint256"
            },
            {
              "internalType": "uint256",
              "name": "timesPlayed",
              "type": "uint256"
            },
            {
              "internalType": "uint256",
              "name": "lastPlayed",
              "type": "uint256"
            },
            {
              "internalType": "bool",
              "name": "exists",
              "type": "bool"
            }
          ],
          "internalType": "struct MonadRunnerGame.Player",
          "name": "",
          "type": "tuple"
        }
      ],
      "stateMutability": "view",
      "type": "function"
    },
    {
      "inputs": [],
      "name": "getPlayerCount",
      "outputs": [
        {
          "internalType": "uint256",
          "name": "",
          "type": "uint256"
        }
      ],
      "stateMutability": "view",
      "type": "function"
    },
    {
      "inputs": [
        {
          "internalType": "address",
          "name": "playerAddress",
          "type": "address"
        }
      ],
      "name": "getPlayerRank",
      "outputs": [
        {
          "internalType": "uint256",
          "name": "",
          "type": "uint256"
        }
      ],
      "stateMutability": "view",
      "type": "function"
    },
    {
      "inputs": [
        {
          "internalType": "address",
          "name": "playerAddress",
          "type": "address"
        }
      ],
      "name": "getPlayerScoreHistory",
      "outputs": [
        {
          "components": [
            {
              "internalType": "address",
              "name": "playerAddress",
              "type": "address"
            },
            {
              "internalType": "uint256",
              "name": "score",
              "type": "uint256"
            },
            {
              "internalType": "uint256",
              "name": "timestamp",
              "type": "uint256"
            },
            {
              "internalType": "bytes32",
              "name": "replayHash",
              "type": "bytes32"
            }
          ],
          "internalType": "struct MonadRunnerGame.GameScore[]",
          "name": "",
          "type": "tuple[]"
        }
      ],
      "stateMutability": "view",
      "type": "function"
    },
    {
      "inputs": [
        {
          "internalType": "uint256",
          "name": "count",
          "type": "uint256"
        }
      ],
      "name": "getTopScores",
      "outputs": [
        {
          "components": [
            {
              "internalType": "address",
              "name": "playerAddress",
              "type": "address"
            },
            {
              "internalType": "uint256",
              "name": "score",
              "type": "uint256"
            },
            {
              "internalType": "uint256",
              "name": "timestamp",
              "type": "uint256"
            },
            {
              "internalType": "bytes32",
              "name": "replayHash",
              "type": "bytes32"
            }
          ],
          "internalType": "struct MonadRunnerGame.GameScore[]",
          "name": "",
          "type": "tuple[]"
        }
      ],
      "stateMutability": "view",
      "type": "function"
    },
    {
      "inputs": [
        {
          "internalType": "address",
          "name": "relayer",
          "type": "address"
        }
      ],
      "name": "isAuthorizedRelayer",
      "outputs": [
        {
          "internalType": "bool",
          "name": "",
          "type": "bool"
        }
      ],
      "stateMutability": "view",
      "type": "function"
    },
    {
      "inputs": [],
      "name": "owner",
      "outputs": [
        {
          "internalType": "address",
          "name": "",
          "type": "address"
        }
      ],
      "stateMutability": "view",
      "type": "function"
    },
    {
      "inputs": [
        {
          "internalType": "uint256",
          "name": "",
          "type": "uint256"
        }
      ],
      "name": "playerAddresses",
      "outputs": [
        {
          "internalType": "address",
          "name": "",
          "type": "address"
        }
      ],
      "stateMutability": "view",
      "type": "function"
    },
    {
      "inputs": [
        {
          "internalType": "address",
          "name": "",
          "type": "address"
        }
      ],
      "name": "players",
      "outputs": [
        {
          "internalType": "string",
          "name": "username",
          "type": "string"
        },
        {
          "internalType": "uint256",
          "name": "highScore",
          "type": "uint256"
        },
        {
          "internalType": "uint256",
          "name": "timesPlayed",
          "type": "uint256"
        },
        {
          "internalType": "uint256",
          "name": "lastPlayed",
          "type": "uint256"
        },
        {
          "internalType": "bool",
          "name": "exists",
          "type": "bool"
        }
      ],
      "stateMutability": "view",
      "type": "function"
    },
    {
      "inputs": [
        {
          "internalType": "string",
          "name": "username",
          "type": "string"
        }
      ],
      "name": "registerPlayer",
      "outputs": [],
      "stateMutability": "nonpayable",
      "type": "function"
    },
    {
      "inputs": [
        {
          "internalType": "address",
          "name": "smartAccount",
          "type": "address"
        }
      ],
      "name": "registerSmartAccount",
      "outputs": [],
      "stateMutability": "nonpayable",
      "type": "function"
    },
    {
      "inputs": [
        {
          "internalType": "address",
          "name": "playerAddress",
          "type": "address"
        },
        {
          "internalType": "address",
          "name": "smartAccount",
          "type": "address"
        }
      ],
      "name": "registerSmartAccountFor",
      "outputs": [],
      "stateMutability": "nonpayable",
      "type": "function"
    },
    {
      "inputs": [
        {
          "internalType": "address",
          "name": "relayer",
          "type": "address"
        }
      ],
      "name": "removeRelayer",
      "outputs": [],
      "stateMutability": "nonpayable",
      "type": "function"
    },
    {
      "inputs": [
        {
          "internalType": "bytes32",
          "name": "",
          "type": "bytes32"
        }
      ],
      "name": "replayExists",
      "outputs": [
        {
          "internalType": "bool",
          "name": "",
          "type": "bool"
        }
      ],
      "stateMutability": "view",
      "type": "function"
    },
    {
      "inputs": [
        {
          "internalType": "address",
          "name": "",
          "type": "address"
        }
      ],
      "name": "smartAccounts",
      "outputs": [
        {
          "internalType": "address",
          "name": "",
          "type": "address"
        }
      ],
      "stateMutability": "view",
      "type": "function"
    },
    {
      "inputs": [
        {
          "internalType": "bytes32",
          "name": "replayHash",
          "type": "bytes32"
        }
      ],
      "name": "storeReplayDataHash",
      "outputs": [],
      "stateMutability": "nonpayable",
      "type": "function"
    },
    {
      "inputs": [
        {
          "internalType": "uint256",
          "name": "score",
          "type": "uint256"
        },
        {
          "internalType": "bytes32",
          "name": "replayHash",
          "type": "bytes32"
        }
      ],
      "name": "submitScore",
      "outputs": [],
      "stateMutability": "nonpayable",
      "type": "function"
    },
    {
      "inputs": [
        {
          "internalType": "uint256",
          "name": "",
          "type": "uint256"
        }
      ],
      "name": "topScores",
      "outputs": [
        {
          "internalType": "address",
          "name": "playerAddress",
          "type": "address"
        },
        {
          "internalType": "uint256",
          "name": "score",
          "type": "uint256"
        },
        {
          "internalType": "uint256",
          "name": "timestamp",
          "type": "uint256"
        },
        {
          "internalType": "bytes32",
          "name": "replayHash",
          "type": "bytes32"
        }
      ],
      "stateMutability": "view",
      "type": "function"
    },
    {
      "inputs": [
        {
          "internalType": "string",
          "name": "newUsername",
          "type": "string"
        }
      ],
      "name": "updateUsername",
      "outputs": [],
      "stateMutability": "nonpayable",
      "type": "function"
    }
  ],
  "transactionHash": "0x0b213a4c177943614cc0e8535d841437b540a1ef9982fd26ec89fbbe57c50f72",
  "args": [],
  "numDeployments": 1,
  "solcInputHash": "690f561faeea024b37fea0a76d3e9357",
  "bytecode": "0x60a060405234801561001057600080fd5b50336080819052600081815260036020526040808220805460ff19166001179055517f03580ee9f53a62b7cb409a2cb56f9be87747dd15017afc5cef6eef321e4fb2c59190a2608051611a7061007f60003960008181610288015281816106420152610dc50152611a706000f3fe608060405234801561001057600080fd5b50600436106101375760003560e01c80638dd76194116100b8578063c2e522061161007c578063c2e5220614610324578063c96cea701461032c578063dd39f00d1461033f578063def8315a14610352578063e0f324d914610365578063e2eb41ff1461039157600080fd5b80638dd76194146102aa578063907bcac4146102bd578063968ffe34146102dd578063a697cb0e146102f0578063b3446f851461031157600080fd5b806360f0a5ac116100ff57806360f0a5ac14610211578063647b3cc014610224578063749a989b14610237578063873698051461025a5780638da5cb5b1461028357600080fd5b806315c6aee21461013c57806329e295c51461016c5780633eec94381461019f5780635112711a146101b45780635c12cd4b146101f1575b600080fd5b61014f61014a366004611528565b6103b5565b6040516001600160a01b0390911681526020015b60405180910390f35b61018f61017a36600461155d565b60036020526000908152604090205460ff1681565b6040519015158152602001610163565b6101b26101ad36600461155d565b6103df565b005b6101c76101c2366004611528565b61049b565b604080516001600160a01b0390951685526020850193909352918301526060820152608001610163565b6102046101ff36600461155d565b6104df565b60405161016391906115c5565b6101b261021f36600461155d565b610637565b6101b2610232366004611617565b610702565b61018f610245366004611528565b60026020526000908152604090205460ff1681565b61014f61026836600461155d565b6001602052600090815260409020546001600160a01b031681565b61014f7f000000000000000000000000000000000000000000000000000000000000000081565b6101b26102b8366004611528565b6107fc565b6102d06102cb36600461155d565b6108a5565b604051610163919061164a565b6102d06102eb366004611528565b61097f565b6103036102fe36600461155d565b610a98565b604051908152602001610163565b6101b261031f3660046116b7565b610b3a565b600554610303565b6101b261033a3660046116b7565b610cec565b6101b261034d36600461155d565b610dba565b6101b2610360366004611729565b610e76565b61018f61037336600461155d565b6001600160a01b031660009081526003602052604090205460ff1690565b6103a461039f36600461155d565b610fa2565b60405161016395949392919061174b565b600581815481106103c557600080fd5b6000918252602090912001546001600160a01b0316905081565b3360009081526020819052604090206004015460ff1661041257604051637b0e56d560e11b815260040160405180910390fd5b6001600160a01b03811661043957604051636afdfe6f60e01b815260040160405180910390fd5b3360008181526001602090815260409182902080546001600160a01b0319166001600160a01b03861690811790915591519182527fb8c36117828c82e9f174f1be4fcc6fdcf92fb930ab0f1f0984d5ce3552b0b227910160405180910390a250565b600681815481106104ab57600080fd5b600091825260209091206004909102018054600182015460028301546003909301546001600160a01b039092169350919084565b6105136040518060a00160405280606081526020016000815260200160008152602001600081526020016000151581525090565b6001600160a01b03821660009081526020819052604090206004015460ff1661054f57604051632e4bf5e760e21b815260040160405180910390fd5b6001600160a01b03821660009081526020819052604090819020815160a0810190925280548290829061058190611784565b80601f01602080910402602001604051908101604052809291908181526020018280546105ad90611784565b80156105fa5780601f106105cf576101008083540402835291602001916105fa565b820191906000526020600020905b8154815290600101906020018083116105dd57829003601f168201915b505050918352505060018201546020820152600282015460408201526003820154606082015260049091015460ff16151560809091015292915050565b336001600160a01b037f0000000000000000000000000000000000000000000000000000000000000000161461068057604051635fc483c560e01b815260040160405180910390fd5b6001600160a01b03811660009081526003602052604090205460ff166106b95760405163283d0c1360e11b815260040160405180910390fd5b6001600160a01b038116600081815260036020526040808220805460ff19169055517f10e1f7ce9fd7d1b90a66d13a2ab3cb8dd7f29f3f8d520b143b063ccfbab6906b9190a250565b3360009081526003602052604090205460ff166107325760405163051deb6960e31b815260040160405180910390fd5b6001600160a01b03811661075957604051636afdfe6f60e01b815260040160405180910390fd5b6001600160a01b03821660009081526020819052604090206004015460ff1661079557604051632e4bf5e760e21b815260040160405180910390fd5b6001600160a01b0382811660008181526001602090815260409182902080546001600160a01b0319169486169485179055905192835290917fb8c36117828c82e9f174f1be4fcc6fdcf92fb930ab0f1f0984d5ce3552b0b227910160405180910390a25050565b3360009081526020819052604090206004015460ff1661082f57604051637b0e56d560e11b815260040160405180910390fd5b60008181526002602052604090205460ff161561085f5760405163f54cdc8760e01b815260040160405180910390fd5b600081815260026020526040808220805460ff1916600117905551829133917f5f9b8953495be5098d89907c7dabd70cd5e678cebd9a9a13b140413bedefd28d9190a350565b6001600160a01b03811660009081526020819052604090206004015460609060ff166108e457604051632e4bf5e760e21b815260040160405180910390fd5b6001600160a01b038216600090815260046020908152604080832080548251818502810185019093528083529193909284015b82821015610974576000848152602090819020604080516080810182526004860290920180546001600160a01b03168352600180820154848601526002820154928401929092526003015460608301529083529092019101610917565b505050509050919050565b60065460609080831115610991578092505b60008367ffffffffffffffff8111156109ac576109ac6117be565b6040519080825280602002602001820160405280156109fe57816020015b6040805160808101825260008082526020808301829052928201819052606082015282526000199092019101816109ca5790505b50905060005b84811015610a905760068181548110610a1f57610a1f6117d4565b600091825260209182902060408051608081018252600490930290910180546001600160a01b0316835260018101549383019390935260028301549082015260039091015460608201528251839083908110610a7d57610a7d6117d4565b6020908102919091010152600101610a04565b509392505050565b6001600160a01b03811660009081526020819052604081206004015460ff16610ad457604051632e4bf5e760e21b815260040160405180910390fd5b60065460005b81811015610b3057836001600160a01b031660068281548110610aff57610aff6117d4565b60009182526020909120600490910201546001600160a01b031603610b28576001019392505050565b600101610ada565b5060009392505050565b3360009081526020819052604090206004015460ff1615610b6e5760405163ab5ac72b60e01b815260040160405180910390fd5b806000819003610b9157604051630b68b9bb60e11b815260040160405180910390fd5b6014811115610bb357604051637dcc042f60e11b815260040160405180910390fd5b6040518060a0016040528084848080601f0160208091040260200160405190810160405280939291908181526020018383808284376000920182905250938552505050602080830182905260408084018390526060840183905260016080909401939093523382528190522081518190610c2d9082611839565b5060208201516001828101919091556040808401516002840155606084015160038401556080909301516004909201805460ff1916921515929092179091556005805491820181556000527f036b6384b5eca791c62761152d0c79bb0604c104a5fb6f4eb0703f3154bb3db0018054336001600160a01b0319909116811790915590517fe04d23b73ae3d3b27074da9719b5a4cd521395aaf86bfe7e374933ecb567731a90610cdf90869086906118f9565b60405180910390a2505050565b3360009081526020819052604090206004015460ff16610d1f57604051637b0e56d560e11b815260040160405180910390fd5b806000819003610d4257604051630b68b9bb60e11b815260040160405180910390fd5b6014811115610d6457604051637dcc042f60e11b815260040160405180910390fd5b336000908152602081905260409020610d7e838583611928565b50336001600160a01b03167f52da81525a30dd3d35a802705ef9adc922d33de50a5b8efc24b69e440451e0658484604051610cdf9291906118f9565b336001600160a01b037f00000000000000000000000000000000000000000000000000000000000000001614610e0357604051635fc483c560e01b815260040160405180910390fd5b6001600160a01b038116610e2a5760405163fe16c3c560e01b815260040160405180910390fd5b6001600160a01b038116600081815260036020526040808220805460ff19166001179055517f03580ee9f53a62b7cb409a2cb56f9be87747dd15017afc5cef6eef321e4fb2c59190a250565b3360009081526020819052604090206004015460ff16610ea957604051637b0e56d560e11b815260040160405180910390fd5b3360009081526020819052604090206002810180546001908101909155426003830155810154831115610ede57600181018390555b604080516080810182523380825260208083018790524283850152606083018690526000868152600290915292909220805460ff1916600117905590610f24908261105c565b610f2d816111bf565b6040805185815242602082015290810184905233907f11774431b482d8b33ae4c1173cffa3967485c8c00a1a423a1ccc9e1174c68f199060600160405180910390a2604051839033907f5f9b8953495be5098d89907c7dabd70cd5e678cebd9a9a13b140413bedefd28d90600090a350505050565b600060208190529081526040902080548190610fbd90611784565b80601f0160208091040260200160405190810160405280929190818152602001828054610fe990611784565b80156110365780601f1061100b57610100808354040283529160200191611036565b820191906000526020600020905b81548152906001019060200180831161101957829003601f168201915b505050506001830154600284015460038501546004909501549394919390925060ff1685565b6001600160a01b03821660009081526004602052604090208054600a81106111615760005b60018203811015611118578281600101815481106110a1576110a16117d4565b90600052602060002090600402018382815481106110c1576110c16117d4565b60009182526020909120825460049092020180546001600160a01b0319166001600160a01b039092169190911781556001808301548183015560028084015490830155600392830154929091019190915501611081565b5081805480611129576111296119e9565b60008281526020812060046000199093019283020180546001600160a01b031916815560018101829055600281018290556003015590555b508054600180820183556000928352602092839020845160049093020180546001600160a01b0319166001600160a01b0390931692909217825591830151918101919091556040820151600282015560609091015160039091015550565b60065460648110156113c55760006111da83602001516114ae565b604080516080810182526000808252602082018181529282018181526060830182815260068054600181018255935292517ff652222313e28459528d920b65115c16c04f3efc82aaedc97be59f3f377c0d3f600490930292830180546001600160a01b0319166001600160a01b0390921691909117905592517ff652222313e28459528d920b65115c16c04f3efc82aaedc97be59f3f377c0d4082015591517ff652222313e28459528d920b65115c16c04f3efc82aaedc97be59f3f377c0d41830155517ff652222313e28459528d920b65115c16c04f3efc82aaedc97be59f3f377c0d42909101559050815b8181111561135b57600660018203815481106112e5576112e56117d4565b906000526020600020906004020160068281548110611306576113066117d4565b60009182526020909120825460049092020180546001600160a01b0319166001600160a01b039092169190911781556001808301549082015560028083015490820155600391820154910155600019016112c7565b508260068281548110611370576113706117d4565b600091825260209182902083516004929092020180546001600160a01b0319166001600160a01b0390921691909117815590820151600182015560408201516002820155606090910151600390910155505050565b60066113d2600183611a15565b815481106113e2576113e26117d4565b906000526020600020906004020160010154826020015111156114aa57600061140e83602001516114ae565b905060001982015b8181111561135b5760066001820381548110611434576114346117d4565b906000526020600020906004020160068281548110611455576114556117d4565b60009182526020909120825460049092020180546001600160a01b0319166001600160a01b03909216919091178155600180830154908201556002808301549082015560039182015491015560001901611416565b5050565b60065460009081905b8082101561152157600060026114cd8385611a2e565b6114d79190611a41565b905084600682815481106114ed576114ed6117d4565b906000526020600020906004020160010154111561151757611510816001611a2e565b925061151b565b8091505b506114b7565b5092915050565b60006020828403121561153a57600080fd5b5035919050565b80356001600160a01b038116811461155857600080fd5b919050565b60006020828403121561156f57600080fd5b61157882611541565b9392505050565b6000815180845260005b818110156115a557602081850181015186830182015201611589565b506000602082860101526020601f19601f83011685010191505092915050565b602081526000825160a060208401526115e160c084018261157f565b90506020840151604084015260408401516060840152606084015160808401526080840151151560a08401528091505092915050565b6000806040838503121561162a57600080fd5b61163383611541565b915061164160208401611541565b90509250929050565b602080825282518282018190526000919060409081850190868401855b828110156116aa57815180516001600160a01b03168552868101518786015285810151868601526060908101519085015260809093019290850190600101611667565b5091979650505050505050565b600080602083850312156116ca57600080fd5b823567ffffffffffffffff808211156116e257600080fd5b818501915085601f8301126116f657600080fd5b81358181111561170557600080fd5b86602082850101111561171757600080fd5b60209290920196919550909350505050565b6000806040838503121561173c57600080fd5b50508035926020909101359150565b60a08152600061175e60a083018861157f565b905085602083015284604083015283606083015282151560808301529695505050505050565b600181811c9082168061179857607f821691505b6020821081036117b857634e487b7160e01b600052602260045260246000fd5b50919050565b634e487b7160e01b600052604160045260246000fd5b634e487b7160e01b600052603260045260246000fd5b601f82111561183457600081815260208120601f850160051c810160208610156118115750805b601f850160051c820191505b818110156118305782815560010161181d565b5050505b505050565b815167ffffffffffffffff811115611853576118536117be565b611867816118618454611784565b846117ea565b602080601f83116001811461189c57600084156118845750858301515b600019600386901b1c1916600185901b178555611830565b600085815260208120601f198616915b828110156118cb578886015182559484019460019091019084016118ac565b50858210156118e95787850151600019600388901b60f8161c191681555b5050505050600190811b01905550565b60208152816020820152818360408301376000818301604090810191909152601f909201601f19160101919050565b67ffffffffffffffff831115611940576119406117be565b6119548361194e8354611784565b836117ea565b6000601f84116001811461198857600085156119705750838201355b600019600387901b1c1916600186901b1783556119e2565b600083815260209020601f19861690835b828110156119b95786850135825560209485019460019092019101611999565b50868210156119d65760001960f88860031b161c19848701351681555b505060018560011b0183555b5050505050565b634e487b7160e01b600052603160045260246000fd5b634e487b7160e01b600052601160045260246000fd5b81810381811115611a2857611a286119ff565b92915050565b80820180821115611a2857611a286119ff565b600082611a5e57634e487b7160e01b600052601260045260246000fd5b50049056fea164736f6c6343000814000a",
  "devdoc": {
    "details": "Smart contract for storing Monad Runner game data on-chain,      including registration of a smart account for account abstraction.      Optimized for minimal gas usage.",
    "kind": "dev",
    "methods": {},
    "title": "MonadRunnerGame",
    "version": 1
  },
  "userdoc": {
    "kind": "user",
    "methods": {},
    "version": 1
  },
  "storageLayout": {
    "storage": [
      {
        "astId": 80,
        "contract": "contracts/MonadRunnerGame.sol:MonadRunnerGame",
        "label": "players",
        "offset": 0,
        "slot": "0",
        "type": "t_mapping(t_address,t_struct(Player)55_storage)"
      },
      {
        "astId": 84,
        "contract": "contracts/MonadRunnerGame.sol:MonadRunnerGame",
        "label": "smartAccounts",
        "offset": 0,
        "slot": "1",
        "type": "t_mapping(t_address,t_address)"
      },
      {
        "astId": 88,
        "contract": "contracts/MonadRunnerGame.sol:MonadRunnerGame",
        "label": "replayExists",
        "offset": 0,
        "slot": "2",
        "type": "t_mapping(t_bytes32,t_bool)"
      },
      {
        "astId": 92,
        "contract": "contracts/MonadRunnerGame.sol:MonadRunnerGame",
        "label": "authorizedRelayers",
        "offset": 0,
        "slot": "3",
        "type": "t_mapping(t_address,t_bool)"
      },
      {
        "astId": 98,
        "contract": "contracts/MonadRunnerGame.sol:MonadRunnerGame",
        "label": "playerScoreHistory",
        "offset": 0,
        "slot": "4",
        "type": "t_mapping(t_address,t_array(t_struct(GameScore)64_storage)dyn_storage)"
      },
      {
        "astId": 101,
        "contract": "contracts/MonadRunnerGame.sol:MonadRunnerGame",
        "label": "playerAddresses",
        "offset": 0,
        "slot": "5",
        "type": "t_array(t_address)dyn_storage"
      },
      {
        "astId": 105,
        "contract": "contracts/MonadRunnerGame.sol:MonadRunnerGame",
        "label": "topScores",
        "offset": 0,
        "slot": "6",
        "type": "t_array(t_struct(GameScore)64_storage)dyn_storage"
      }
    ],
    "types": {
      "t_address": {
        "encoding": "inplace",
        "label": "address",
        "numberOfBytes": "20"
      },
      "t_array(t_address)dyn_storage": {
        "base": "t_address",
        "encoding": "dynamic_array",
        "label": "address[]",
        "numberOfBytes": "32"
      },
      "t_array(t_struct(GameScore)64_storage)dyn_storage": {
        "base": "t_struct(GameScore)64_storage",
        "encoding": "dynamic_array",
        "label": "struct MonadRunnerGame.GameScore[]",
        "numberOfBytes": "32"
      },
      "t_bool": {
        "encoding": "inplace",
        "label": "bool",
        "numberOfBytes": "1"
      },
      "t_bytes32": {
        "encoding": "inplace",
        "label": "bytes32",
        "numberOfBytes": "32"
      },
      "t_mapping(t_address,t_address)": {
        "encoding": "mapping",
        "key": "t_address",
        "label": "mapping(address => address)",
        "numberOfBytes": "32",
        "value": "t_address"
      },
      "t_mapping(t_address,t_array(t_struct(GameScore)64_storage)dyn_storage)": {
        "encoding": "mapping",
        "key": "t_address",
        "label": "mapping(address => struct MonadRunnerGame.GameScore[])",
        "numberOfBytes": "32",
        "value": "t_array(t_struct(GameScore)64_storage)dyn_storage"
      },
      "t_mapping(t_address,t_bool)": {
        "encoding": "mapping",
        "key": "t_address",
        "label": "mapping(address => bool)",
        "numberOfBytes": "32",
        "value": "t_bool"
      },
      "t_mapping(t_address,t_struct(Player)55_storage)": {
        "encoding": "mapping",
        "key": "t_address",
        "label": "mapping(address => struct MonadRunnerGame.Player)",
        "numberOfBytes": "32",
        "value": "t_struct(Player)55_storage"
      },
      "t_mapping(t_bytes32,t_bool)": {
        "encoding": "mapping",
        "key": "t_bytes32",
        "label": "mapping(bytes32 => bool)",
        "numberOfBytes": "32",
        "value": "t_bool"
      },
      "t_string_storage": {
        "encoding": "bytes",
        "label": "string",
        "numberOfBytes": "32"
      },
      "t_struct(GameScore)64_storage": {
        "encoding": "inplace",
        "label": "struct MonadRunnerGame.GameScore",
        "members": [
          {
            "astId": 57,
            "contract": "contracts/MonadRunnerGame.sol:MonadRunnerGame",
            "label": "playerAddress",
            "offset": 0,
            "slot": "0",
            "type": "t_address"
          },
          {
            "astId": 59,
            "contract": "contracts/MonadRunnerGame.sol:MonadRunnerGame",
            "label": "score",
            "offset": 0,
            "slot": "1",
            "type": "t_uint256"
          },
          {
            "astId": 61,
            "contract": "contracts/MonadRunnerGame.sol:MonadRunnerGame",
            "label": "timestamp",
            "offset": 0,
            "slot": "2",
            "type": "t_uint256"
          },
          {
            "astId": 63,
            "contract": "contracts/MonadRunnerGame.sol:MonadRunnerGame",
            "label": "replayHash",
            "offset": 0,
            "slot": "3",
            "type": "t_bytes32"
          }
        ],
        "numberOfBytes": "128"
      },
      "t_struct(Player)55_storage": {
        "encoding": "inplace",
        "label": "struct MonadRunnerGame.Player",
        "members": [
          {
            "astId": 46,
            "contract": "contracts/MonadRunnerGame.sol:MonadRunnerGame",
            "label": "username",
            "offset": 0,
            "slot": "0",
            "type": "t_string_storage"
          },
          {
            "astId": 48,
            "contract": "contracts/MonadRunnerGame.sol:MonadRunnerGame",
            "label": "highScore",
            "offset": 0,
            "slot": "1",
            "type": "t_uint256"
          },
          {
            "astId": 50,
            "contract": "contracts/MonadRunnerGame.sol:MonadRunnerGame",
            "label": "timesPlayed",
            "offset": 0,
            "slot": "2",
            "type": "t_uint256"
          },
          {
            "astId": 52,
            "contract": "contracts/MonadRunnerGame.sol:MonadRunnerGame",
            "label": "lastPlayed",
            "offset": 0,
            "slot": "3",
            "type": "t_uint256"
          },
          {
            "astId": 54,
            "contract": "contracts/MonadRunnerGame.sol:MonadRunnerGame",
            "label": "exists",
            "offset": 0,
            "slot": "4",
            "type": "t_bool"
          }
        ],
        "numberOfBytes": "160"
      },
      "t_uint256": {
        "encoding": "inplace",
        "label": "uint256",
        "numberOfBytes": "32"
      }
    }
  }
}